:1018C00022C03CC055C03AC039C038C037C036C04D
:1018D00035C034C033C032C031C030C02FC009025F
:1018E0001200010100803209040000000000000025
:1018F00012011001FF000008D01653070A01000072
:1019000000010403090411241FBECFE5D2E0DEBFAD
:10191000CDBF10E0A0E6B0E0ECEBFFE102C0059027
:101920000D92A636B107D9F720E0A6E6B0E001C0D7
:101930001D92AB39B207E1F789D13EC3C1CFA82FC1
:10194000B92F80E090E041E050EA609530E009C0B6
:101950002D9182279795879510F084279527305EE3
:10196000C8F36F5FA8F30895EADF8D939D93089500
:10197000C0E2CABFC395B39BE9F7B39B0BC0B39B4F
:1019800009C0B39B07C0B39B05C0B39B03C0B39B07
:1019900001C0D3C00F92DF93C0917E00DD27CB57EB
:1019A000DF4F012EB39B03C0DF910F90E6CF2F9343
:1019B0000F931F934F932FEF4F6F06B303FB20F945
:1019C0005F933F9350E03BE065C016B3012650297A
:1019D00053FDC89556B3012703FB25F92F7306B3B2
:1019E000B1F05027102713FB26F906B22230F0F091
:1019F00000C016B3012703FB27F90126502906B2C0
:101A00002430E8F54F77206816B30000F6CF502752
:101A10004F7D206206B2102F000000C006B30026E2
:101A20005029102713FB26F906B2E2CF4F7B06B3ED
:101A3000206400C0DACF01265029187106B269F17E
:101A40004E7F2160012F16B328C0002650294D7FFC
:101A500006B22260102F29C0012650294B7F06B202
:101A60002460012F2DC016B301265029477F28601E
:101A7000000006B22EC04F7E06B3206130C0422760
:101A800006B3499300265029102706B24FEF13FBE7
:101A900020F9297F16B379F2187159F101265029DE
:101AA00006B2012703FB21F9237F06B371F200265A
:101AB00050293150D0F006B2102713FB22F9277EAF
:101AC00016B351F201265029012703FB06B223F970
:101AD0002F7C49F2000006B3102713FB24F90026DF
:101AE000502906B22F7939F270CF10E21ABF0027C1
:101AF00017C03B503195C31BD04010E21ABF08817C
:101B0000033CE1F00B34D1F020917C001981110FDE
:101B10001213EDCF093639F10D3211F0013E39F7CC
:101B2000009383003F915F914F911F910F912F91EF
:101B3000DF910F90CAB7C5FD1DCF08952091830096
:101B4000222381F310918100112321F5343022F1F9
:101B50003093810020937D0010917E003BE0311B8B
:101B600030937E0019C00091810001309CF40AE599
:101B70003091600034FD11C000936000C1E7D0E0F7
:101B800010C0052710E000C021C0052710E0C8954F
:101B900008BB14C03AE501C032ED032EC0E0D0E02E
:101BA00032E017B31861C39A08B317BB58E120E8B5
:101BB0004FEF20FF052708BB279517951C3F28F7F7
:101BC00000004552B0F720FF0527279508BB179561
:101BD0001C3FB8F629913A9561F7077E1091820073
:101BE000110F08BBC250D04011F010937C0010E2DE
:101BF0001ABF086017B3177E402F477E54E05A95EE
:101C0000F1F708BB17BB48BB8DCF2FEFB0E8A0E4BE
:101C10004AE0B1BF000081EE9CE0B399FECFB39BD8
:101C2000FECF0197B399FDCF97FF03C0BA1B8195F3
:101C300001C0BA0FA69529F4281710F031B7282F44
:101C4000A1E0415031F731BF0000089514BE88E192
:101C50000FB6F89481BD11BC0FBEF894BB9A88EB07
:101C60009BE0ECE9F1E03197F1F70197D1F7BB98F0
:101C7000AC9A8BB780628BBF06C00AB605FE04C063
:101C800077DE84E601C088EC8150B9F720918100AD
:101C9000235027FDE7C080917E00CCE0D0E0C81B38
:101CA000D109CB57DF4F80917D008D3209F090C074
:101CB000283009F0D5C083EC809371008AE58093C9
:101CC000600010926B002881922F90768981992371
:101CD00029F11092670010926600811108C082E617
:101CE00090E09093800080937F0014E067C0813083
:101CF00051F48C819D8190936A008093690027FD47
:101D000058C01FEF57C090916800823011F4916065
:101D100001C094609093680010E050C09A811092C6
:101D20007A00811106C010927B008AE790E012E0F1
:101D30003BC0853019F4909382002CC0863009F5A1
:101D40008B81813019F480EF98E104C0823041F436
:101D50008EED98E19093800080937F0012E10DC09A
:101D6000833051F4911108C082E099E19093800092
:101D700080937F0014E001C010E080E480936B004A
:101D80001DC0883059F0893019F49093840002C046
:101D90008A3039F08AE790E010E006C084E890E0ED
:101DA00002C08AE790E011E09093800080937F006A
:101DB00005C01E8180E880936B0007C08F81811170
:101DC00004C08E81811708F4182F1093610048C059
:101DD00080916B0087FF44C0E0916900F0916A0038
:101DE000E03C38E1F30728F0809169008F7389F1B6
:101DF00037C088819981309759F490936D00809312
:101E00006C0081E180935700E8958FE59CEC11C050
:101E1000EC3B38E1F30739F480916C0090916D0050
:101E20008E559C4F06C0EE3B38E1F30711F481B7A5
:101E300090E031E00C0130935700E8951124329680
:101E4000F0936A00E09369002296225009F0C4CF13
:101E5000CBCF80916800826080936800109261000F
:101E6000109281008091600084FF43C080916100E6
:101E70008F3F09F43EC0082F893008F008E0801B2E
:101E8000809361008091710098E8892780937100A8
:101E9000002319F1E0917F00F091800080916B00A8
:101EA00086FF0BC0A2E7B0E084918D93319682E764
:101EB00090E0800F8A13F8CF0CC0CF01A2E7B0E00A
:101EC000FC012191CF012D9322E730E0200F2A134E
:101ED000F7CFF0938000E0937F00602F82E790E0DF
:101EE00043DD0C5F0C3019F08FEF8093610000939D
:101EF000600084E196B3987131F48150D9F7109263
:101F0000820010927C0001E0811100E0809170005D
:101F1000801739F0011103C01092670076DE00933C
:101F2000700080916800811105C034C00AB605FEBA
:101F300003C01EDD88EE93E00197C1F78091680031
:101F400080FF0EC0E0ECF8E1E054F10993E09093DB
:101F50005700E8953097C1F710926A001092690017
:101F600081FF09C0E0916900F0916A00329795E025
:101F700090935700E89582FF0BC0BB9A1BBE15BA21
:101F8000EEEBF8E1E4918E2F81508E3F88F012C085
:101F9000109268008091660090916700019690937E
:101FA00067008093660080369A4E08F46CCEE5CFC9
:0C1FB000E1BF000083CC02CFF894FFCF0B
:061FBC005AFF18BC4008AA
:04000003000018C021
:00000001FF
